:100000000C9462000C948A000C948A000C948A0070
:100010000C948A000C948A000C948A000C948A0038
:100020000C948A000C948A000C948A000C948A0028
:100030000C948A000C948A000C948A000C948A0018
:100040000C9458020C948A000C948A000C948A0038
:100050000C948A000C948A000C948A000C948A00F8
:100060000C945B040C948A0000000000240027001C
:100070002A0000000000250028002B0000000000DE
:1000800023002600290004040404040404040202DA
:100090000202020203030303030301020408102007
:1000A0004080010204081020010204081020000012
:1000B0000008000201000003040700000000000027
:1000C0000000A50B11241FBECFEFD8E0DEBFCDBFCF
:1000D00023E0AAE6B2E001C01D92AA3BB207E1F715
:1000E00012E0A0E0B1E0E4EFFEE102C005900D9265
:1000F000AA36B107D9F710E0C2E6D0E004C02197D4
:10010000FE010E94760DC136D107C9F70E94A60AEA
:100110000C94780F0C94000008950895CF92DF920C
:10012000EF92FF920F931F93CF93DF936C017A01AD
:100130008B01C0E0D0E0CE15DF0581F0D8016D91D4
:100140008D01D601ED91FC910190F081E02DC60169
:100150000995892B11F02196EECF7E01C701DF9121
:10016000CF911F910F91FF90EF90DF90CF90089566
:1001700085ED8093BC008091BC0084FDFCCF109283
:10018000190308954091AA02262F30E0240F311D53
:1001900021323105DCF4209119032430C9F4FC012B
:1001A00080E090E0861758F43091AA022191DC019A
:1001B000A657BD4FA30FB11D2C930196F3CF80918D
:1001C000AA02680F6093AA0280E0089581E0089572
:1001D00082E008950895E0911D0380911C03E817C3
:1001E00030F4F0E0E659FD4F808190E008958FEF04
:1001F0009FEF089590911D0380911C03981750F470
:10020000E92FF0E0E659FD4F208130E09F5F9093A9
:100210001D0302C02FEF3FEFC901089580911C0319
:1002200090E020911D03821B91090895CF92DF92E7
:10023000EF92FF920F931F93CF93DF937C01CB013B
:100240008A012091F102222389F0EB016B01C40E97
:10025000D51ECC15DD0569F06991D701ED91FC91B2
:100260000190F081E02DC7010995F3CF642F0E9422
:10027000C200C801DF91CF911F910F91FF90EF90C5
:10028000DF90CF900895CF93DF931F92CDB7DEB765
:1002900069832091F1022223D1F020911A032032A8
:1002A00040F021E030E0FC013383228380E090E0E5
:1002B00015C080911B03E82FF0E0EE50FD4F9981AF
:1002C00090838F5F80931B0380931A0305C061E0C6
:1002D000CE0101960E94C20081E090E00F90DF9174
:1002E000CF910895CF93FC01C48121E02093F102C6
:1002F000C093120310921B0310921A038385682B7C
:100300008BE293E00E94430190911A03913208F02E
:1003100045C0809119038111FCCF82E080931903BD
:1003200081E0809318038FEF8093F0021092EF0228
:100330009093EE02A2EFB2E0EEECF2E080E09817CC
:1003400021F02D9121938F5FFACF1092CD028091F1
:10035000CD02CC0FC82BC093CD0280911703813002
:1003600061F4109217038091CD028093BB008091BD
:10037000BC0083FDF8CF85EC01C085EE8093BC0006
:10038000809119038230E1F38091F0028F3F31F0C8
:100390008091F002803211F08091F00210921B03E4
:1003A00010921A031092F102CF9108950F931F93A8
:1003B000CF938C01C62F0E9472016C2F6460C8011C
:1003C0000E9472016C2F6B7FC8010E94720183EC46
:1003D00090E00197F1F7CF911F910F910895089543
:1003E00080E090E00895862F642F0C94B508862F46
:1003F000642F0C94E4080E94630F0F931F93CF9314
:10040000DF93EC0188819981009729F02A813B8153
:100410002617370788F48B016F5F7F4F0E949D0E70
:10042000009761F0998388831B830A832C813D8127
:10043000232B11F4FC01108281E001C080E0DF91E8
:10044000CF911F910F910895862F0C948C083FB780
:10045000F8948091270390912803A0912903B091EB
:100460002A0326B5A89B05C02F3F19F00196A11DB0
:10047000B11D3FBFBA2FA92F982F8827820F911D3A
:10048000A11DB11DBC01CD0142E0660F771F881F81
:10049000991F4A95D1F708952FB7F89460912303D7
:1004A0007091240380912503909126032FBF089516
:1004B0001F920F920FB60F9211242F933F938F9399
:1004C0009F93AF93BF938091230390912403A091B6
:1004D0002503B09126033091220323E0230F2D370B
:1004E00020F40196A11DB11D05C026E8230F029638
:1004F000A11DB11D20932203809323039093240315
:10050000A0932503B093260380912703909128039D
:10051000A0912903B0912A030196A11DB11D8093DA
:10052000270390932803A0932903B0932A03BF9134
:10053000AF919F918F913F912F910F900FBE0F9090
:100540001F901895EF92FF920F931F93CF93DF9315
:100550006115710511F480E01CC041155105C1F011
:100560007B01EC018C819D818A01080F191FB80164
:10057000CE010E94FD01882371F3288139818C818D
:100580009D81B701820F931F0E94710F1D830C8301
:1005900081E0DF91CF911F910F91FF90EF9008952F
:1005A000CF93DF93EC0188819981009711F00E942D
:1005B000140E198218821D821C821B821A82DF91FE
:1005C000CF910895EF92FF920F931F93CF93DF93F4
:1005D000EC017B018A01BA010E94FD01811104C076
:1005E000CE010E94D00207C01D830C83B701888111
:1005F00099810E94710FCE01DF91CF911F910F91D0
:10060000FF90EF900895CF93DF93EC01FB018617E5
:10061000970761F0608171816115710529F044814E
:1006200055810E94E20202C00E94D002CE01DF91F9
:10063000CF910895FC01808191810C94140EFC01EE
:100640001182108213821282158214826115710543
:1006500051F0FB0101900020E9F73197AF01461BF3
:10066000570B0C94E20208958F929F92AF92BF9223
:10067000EF92FF920F931F93CF93DF93CDB7DEB727
:10068000A1970FB6F894DEBF0FBECDBF7C014A0123
:100690005B01FC0111821082138212821582148286
:1006A0002AE08E010F5F1F4FA801C501B4010E940F
:1006B0000D0DF80101900020E9F73197AF01401BC3
:1006C000510BB801C7010E94E202FAE08F169104B3
:1006D000A104B104C8F468E571E0C8010E941F03D9
:1006E000F7014481558160817181C8010E94A20295
:1006F000811103C0C8010E94D002B801C7010E9445
:100700000303C8010E941A03C701A1960FB6F8940B
:10071000DEBF0FBECDBFDF91CF911F910F91FF9034
:10072000EF90BF90AF909F908F9008958F929F927F
:10073000AF92BF92CF92DF92EF92FF920F931F93EF
:10074000CF93DF9300D000D000D0CDB7DEB74B0100
:100750005C0169017A0160E080E00E9454088AE54A
:1007600091E00E94420860E08AE00E945408B501CE
:10077000A401CE0101960E943403CE0101960E948D
:100780008308CE0101960E941A0361E080E00E9476
:10079000540882E691E00E94420861E08AE00E94EB
:1007A0005408B701A601CE0101960E943403CE0180
:1007B00001960E948308CE0101960E941A0362E00E
:1007C00080E00E9454088CE691E00E94420862E0BA
:1007D00087E00E94540800E011E0F8014081518157
:1007E00062817381CE0101960E943403CE0101968D
:1007F0000E948308CE0101960E941A0362E08AE0FB
:100800000E94540884E791E00E94420862E081E17E
:100810000E945408F8014481558166817781CE0198
:1008200001960E943403CE0101960E948308CE01F6
:1008300001960E941A0363E080E00E9454088CE74E
:1008400091E00E94420863E089E00E94540885E834
:1008500091E00E94420826960FB6F894DEBF0FBEC4
:10086000CDBFDF91CF911F910F91FF90EF90DF905F
:10087000CF90BF90AF909F908F9008950F931F934C
:10088000CF93DF938C01C62FD42F607F642B0E94FF
:10089000D60180E1C89FB00111246D2BC801DF9102
:1008A000CF911F910F910C94D60141E00E943E041C
:1008B00081E090E008951F920F920FB60F921124DD
:1008C0002F933F934F935F936F937F938F939F9358
:1008D000AF93BF93EF93FF938091B900887F8036E9
:1008E00009F49CC068F5883209F45BC090F480314B
:1008F00009F454C038F4882309F4F6C0883009F4A8
:100900004DC0F6C0883109F44CC0803209F45DC096
:10091000EFC0803409F468C048F4803309F455C04E
:10092000883309F0E5C08093F002D8C0803509F41F
:100930004FC0883509F45DC0883409F0D9C0D6C0ED
:10094000883909F4C7C0A8F4883709F467C038F4B7
:10095000883609F463C0803709F460C0C9C088389C
:1009600009F4B8C0803909F45FC0803809F0C0C00C
:100970005BC0803B09F486C038F4803A09F466C055
:10098000883A09F47FC0B4C0803C09F4A7C0883C11
:1009900009F4A4C0883B09F48AC0AAC08091CD02A2
:1009A00010C09091EF028091EE02981770F5E091DF
:1009B000EF0281E08E0F8093EF02F0E0E253FD4FF3
:1009C00080818093BB0085EC86C08093F0028EC04E
:1009D000E091EF0281E08E0F8093EF028091BB00E7
:1009E000F0E0E253FD4F80839091EF028091EE02A0
:1009F0006EC0E091EF0281E08E0F8093EF02809154
:100A0000BB00F0E0E253FD4F808380911803811119
:100A10006DC081E08093170384EA61C083E0809316
:100A200019031092CC02CFCF8091CC02803208F013
:100A300051C0E091CC0281E08E0F8093CC02809176
:100A4000BB00F0E0E455FD4F8083BDCF85EC809383
:100A5000BC00109219038091CC02803230F4E091F6
:100A6000CC02F0E0E455FD4F10826091CC0270E0C2
:100A7000E0911303F09114038CEA92E0099510922F
:100A8000CC0236C084E0809319031092AB0210921E
:100A9000AA02E0911503F091160309958091AA022C
:100AA000811105C081E08093AA0210928A02E09130
:100AB000AB0281E08E0F8093AB02F0E0E657FD4F72
:100AC00080818093BB009091AB028091AA0298171D
:100AD00008F479CF85E88093BC000AC085EC809348
:100AE000BC001092190304C01092F0020E94B800DA
:100AF000FF91EF91BF91AF919F918F917F916F91F6
:100B00005F914F913F912F910F900FBE0F901F90CB
:100B10001895CF93DF9300D000D000D0CDB7DEB7CB
:100B20000E94370860E08AE00E94B50860E080E03B
:100B30000E94540881E991E00E94420861E080E04F
:100B40000E9454088BE991E00E94420862E080E034
:100B50000E94540887EA91E00E94420863E080E026
:100B60000E94540885EB91E00E9442080E942009EF
:100B70008823E1F28134C9F40E94370860EC71E007
:100B8000CE0101960E941F03CE0101960E94250C02
:100B9000092E000CAA0BBB0B80930001909301015E
:100BA000A0930201B09303011AC08234E9F40E94B9
:100BB000370866EC71E0CE0101960E941F03CE015A
:100BC00001960E94250C092E000CAA0BBB0B8093EA
:100BD000040190930501A0930601B0930701CE0193
:100BE00001960E941A03A2CF843409F09FCF0E947D
:100BF00037080E946C060E942009882309F46BC004
:100C0000833431F460E08AE00E94B5080E948905CF
:100C1000843431F460E08AE00E94B5080E94FB064B
:100C2000813361F48091000190910101A091020152
:100C3000B09103010196A11DB11D13C08733F1F4DA
:100C40008091000190910101A0910201B0910301F6
:100C500082309105A105B10568F481E090E0A0E043
:100C6000B0E08093000190930101A0930201B09342
:100C7000030108950197A109B109F3CF833361F40A
:100C80008091040190910501A0910601B0910701A6
:100C90000196A11DB11D17C08933E9F480910401AB
:100CA00090910501A0910601B09107018230910554
:100CB000A105B10528F481E090E0A0E0B0E003C018
:100CC0000197A109B1098093040190930501A093B4
:100CD0000601B093070108958090000190900101F2
:100CE000A0900201B0900301C0900401D0900501D2
:100CF000E0900601F090070161E08AE00E94B508EB
:100D0000A7019601C501B4010E94960380913703A3
:100D100090913803A0913903B0913A0340911E039A
:100D200050911F036091200370912103841B950B48
:100D3000A60BB70B893E9340A105B10590F40E9424
:100D4000FB058091370390913803A0913903B0914E
:100D50003A0380931E0390931F03A0932003B09344
:100D6000210381E0881A9108A108B10829F6809032
:100D7000000190900101A0900201B090030160E099
:100D80008AE00E94B508A7019601C501B4010E943E
:100D900096038091370390913803A0913903B09165
:100DA0003A0340911E0350911F03609120037091FC
:100DB0002103841B950BA60BB70B893E9340A1051D
:100DC000B10590F40E94FB058091370390913803A0
:100DD000A0913903B0913A0380931E0390931F03AF
:100DE000A0932003B093210381E0C81AD108E10841
:100DF000F10829F679CF0E94370860E080E00E9470
:100E000054088EEC91E00E94420861E080E00E946C
:100E1000540884ED91E00E94420862E080E00E9464
:100E200054088DED91E00E9442080E942009882319
:100E300021F3813421F40E9437080E946C06823429
:100E4000E1F60E94370800E010E060E080E0011564
:100E5000110569F40E94540886EE91E00E94420850
:100E600061E080E00E94540882EF91E00FC0013001
:100E70001105A9F40E94540886EE91E00E944208F0
:100E800061E080E00E94540880E292E00E94420803
:100E900062E080E00E94540884E092E014C00E9466
:100EA000540886EE91E00E94420861E080E00E94D2
:100EB000540882EF91E00E94420862E080E00E94C4
:100EC000540884E392E00E94420863E080E00E94BC
:100ED000540885E192E00E9442080E942009C82F30
:100EE000882309F4B2CF0E943708C13439F461E095
:100EF0008AE00E94B50801E010E0A7CFC23439F4BF
:100F000060E08AE00E94B50802E010E09ECFC434A1
:100F100009F09BCF60E08AE00E94B5080E94FB06C2
:100F200096E0899FD0011124A95BBC4F90967C93D9
:100F30006E935F9791E091969C9391979091B303F4
:100F4000E091B403F091B503992339F0309751F053
:100F5000811108C08091630304C0309719F05C963A
:100F60008C9109940895833081F028F4813099F0B0
:100F70008230A1F008958730A9F08830B9F084302C
:100F8000D1F4809180008F7D03C0809180008F77A5
:100F900080938000089584B58F7702C084B58F7DDB
:100FA00084BD08958091B0008F7703C08091B00018
:100FB0008F7D8093B00008950F931F93CF93DF939D
:100FC000C82FD62F86E0C89FF0011124E95BFC4FA3
:100FD00011A2878D90A181309105D9F040F0823027
:100FE0009105A9F10397F1F560E070E034C0662344
:100FF000C9F161E070E08C2F0E9490070E944C02C2
:1010000060939F037093A0038093A1039093A20326
:1010100029C00E944C0200919F031091A0032091CF
:10102000A1033091A203AB01BC01401B510B620B29
:10103000730B8091B1039091B203A0E0B0E08417EC
:101040009507A607B70718F462E070E004C0D11155
:1010500009C063E070E08C2FDF91CF911F910F9159
:101060000C949007DF91CF911F910F91089540E06C
:1010700061E08BE393E00E943E048BE39FE10197E4
:10108000F1F70895009769F0FC0101900020E9F75D
:101090003197AF01481B590BBC018BE393E00C94D3
:1010A0008E0080E090E00895CF93DF93CDB7DEB758
:1010B00028970FB6F894DEBF0FBECDBF98E0E8E2E8
:1010C000F1E0DE01119601900D929A95E1F7909171
:1010D0004303961710F46FEF690FFE013196E60F88
:1010E000F11DE60FF11D6081680F606840E08BE341
:1010F00093E028960FB6F894DEBF0FBECDBFDF9108
:10110000CF910C943E04FC01448155816081718132
:101110008BE393E00C948E00CF93DF93282F30E085
:10112000F901E255FF4F8491F901E656FF4FD49142
:10113000F901EA57FF4FC491CC2391F081110E942D
:10114000B307EC2FF0E0EE0FFF1FE458FF4FA5911F
:10115000B491EC91ED2381E090E021F480E002C0B5
:1011600080E090E0DF91CF9108951F93CF93DF93BC
:10117000282F30E0F901E255FF4F8491F901E6563E
:10118000FF4FD491F901EA57FF4FC491CC23C1F02E
:10119000162F81110E94B307EC2FF0E0EE0FFF1F16
:1011A000EE58FF4FA591B4919FB7F894111104C068
:1011B0008C91D095D82302C0EC91DE2BDC939FBF9D
:1011C000DF91CF911F910895CF93DF9390E0FC01C1
:1011D000E656FF4F2491FC01EA57FF4F8491882384
:1011E00061F190E0880F991FFC01E859FF4FC5910C
:1011F000D491FC01EE58FF4FA591B491611109C043
:101200009FB7F8948881209582238883EC912E23C0
:101210000BC0623061F49FB7F8948881322F30950B
:1012200083238883EC912E2B2C939FBF06C08FB70E
:10123000F894E8812E2B28838FBFDF91CF910895FA
:101240006F927F928F929F92AF92BF92CF92DF92D6
:10125000EF92FF920F931F93CF93DF9381E08093E0
:10126000B3030E944C020091A3031091A4032091A8
:10127000A5033091A603AB01BC01401B510B620BCF
:10128000730B8091AF039091B003A0E0B0E084179E
:101290009507A607B70708F0E6C0C0E08091AD0348
:1012A000C81730F0712C812C912C5401839440C0CC
:1012B000E091A903F091AA03EC0FF11D62E0808197
:1012C0000E94E408CF5FEACFC62DD0E0E091A903E9
:1012D000F091AA03EC0FFD1F80810E948C082496D8
:1012E000CC0FDD1FC95BDC4F892B09F04BC0888117
:1012F00099818C299D299983888363948091AD037A
:10130000681610F3E091AB03F091AC03E00FF11F0E
:1013100061E080810E94B5088091AB039091AC039D
:10132000FC01E00FF11F60E080810E94E4087394EB
:101330008091AE03781658F5072D10E0E091AB03CD
:10134000F091AC03E00FF11F61E080810E94E4089E
:10135000E091AB03F091AC03E00FF11F60E08081FE
:101360000E94B508D501C401072C04C0880F991F3D
:10137000AA1FBB1F0A94D2F76C017C01E094F09481
:10138000612CBCCF888199818E219F21B4CF27E425
:10139000E22E23E0F22EF7018FEF9FEF278D30A191
:1013A000232B21F4148E968F858F11A2369623E07D
:1013B000E338F20799F7C0E096E0D92E8091AD03AB
:1013C000C81758F5D0E00C2F10E0000F111F015B7B
:1013D0001C4F2091AE03D217F0F4F80140815181E7
:1013E0000D2E02C0569547950A94E2F7642F61705E
:1013F000C29F900111242D0F311DE7E4F3E080E03E
:10140000A58DB68D2A173B0709F44DC08F5F369620
:101410008A30B1F72CC0CF5FD1CFC0E0F70181A1F6
:101420008111C1E0F6E0EF0EF11C23E8E21623E0A3
:10143000F206A1F70E944C026093A3037093A403E9
:101440008093A5039093A603CC2369F08091680351
:10145000882349F08091660390916703019719F4FE
:10146000809163032AC01092B30380E026C040FF3E
:101470001CC0E7E4F3E080E090E0448D411117C028
:10148000E091A703F091A803E20FF31F4081D89EDB
:10149000F001D99EF00D1124E95BFC4F448F368F8B
:1014A000258F10A2178E0E94DC07DF5F92CF019676
:1014B00036968A30910509F7F8CFDF91CF911F91C9
:1014C0000F91FF90EF90DF90CF90BF90AF909F90E3
:1014D0008F907F906F9008958F929F92AF92BF925E
:1014E000CF92DF92EF92FF926B017C010E94270264
:1014F0004B015C01C114D104E104F104F1F00E943C
:101500002702DC01CB0188199909AA09BB09883E89
:101510009340A105B10570F321E0C21AD108E1089A
:10152000F10888EE880E83E0981EA11CB11CC1143E
:10153000D104E104F10419F7DDCFFF90EF90DF90C3
:10154000CF90BF90AF909F908F900895789484B57E
:10155000826084BD84B5816084BD85B5826085BDAF
:1015600085B5816085BD80916E00816080936E003D
:10157000109281008091810082608093810080912F
:1015800081008160809381008091800081608093E0
:1015900080008091B10084608093B1008091B000A0
:1015A00081608093B00080917A00846080937A009B
:1015B00080917A00826080937A0080917A008160C5
:1015C00080937A0080917A00806880937A001092EC
:1015D000C10061E08AE00E94E40860E08AE00E94C5
:1015E000B5080E944C0260931E0370931F03809302
:1015F00020039093210310921D0310921C0310925C
:101600001B0310921A031092190381E080931803B0
:101610001092170361E082E10E94B50861E083E166
:101620000E94B5088091B9008E7F8093B9008091A7
:10163000B9008D7F8093B90088E48093B80085E479
:101640008093BC008CE890E0909316038093150380
:101650008DE890E09093140380931303109240035D
:1016600080914503823018F098E090934003809376
:10167000430362E370E080E090E00E946C0A6091B6
:1016800046038BE393E00E94720168EE73E080E012
:1016900090E00E946C0A60E38BE393E00E94D60125
:1016A000CBE4D6E4CE010197F1F760E38BE393E05E
:1016B0000E94D6012197F1F760E38BE393E00E944B
:1016C000D60183E592E00197F1F760E28BE393E0C6
:1016D0000E94D60160914003606240E08BE393E09A
:1016E0000E943E0484E08093410340E06CE08BE381
:1016F00093E00E943E040E94370882E080934203F8
:1017000040E066E08BE393E00E943E0440E062E04C
:101710008BE393E00E943E048BE39FE10197F1F796
:1017200088E08093460360E08BE393E00E947201BF
:10173000609142036E7F60934203646040E08BE3FC
:1017400093E00E943E040E94FB0610922E0310922A
:101750002D0388EE93E0A0E0B0E080932F039093F8
:101760003003A0933103B093320384E391E090936C
:101770002C0380932B031092490310924D03109277
:101780004C0310924E0382E591E0909348038093BE
:101790004703E7E4F3E083E893E0148E10A2178E8A
:1017A00011A236968E179F07C1F78EE091E09093B5
:1017B000AA038093A9038AE091E09093AC038093FD
:1017C000AB0384E08093AD038093AE0322E131E06C
:1017D0003093A8032093A7032AE030E03093B003AE
:1017E0002093AF0324EF31E03093B2032093B10391
:1017F0001092B5031092B4031092A3031092A403A5
:101800001092A5031092A6031092B30310923E0308
:1018100010923D0326E431E030933C0320933B03D8
:1018200097E290933F0394E19093440380934503A0
:10183000109246030E944C02609337037093380362
:101840008093390390933A030895CF92DF92EF92F9
:10185000FF921F93CF93DF93CDB7DEB72E970FB6CE
:10186000F894DEBF0FBECDBF7C0168E472E0CE010C
:1018700001960E941F03F7014481558160817181A7
:10188000CE0101960E94A202811104C0CE010196F0
:101890000E94D00249E050E06EE472E0CE01019671
:1018A0000E94A202882309F45EC018861F821A864D
:1018B00019861C861B86BE016F5F7F4FCE0107967F
:1018C0000E940303CE0101960E941A036BE771E0A8
:1018D000CE0101960E941F0360E080E00E94540840
:1018E000CE0107960E94830861E080E00E945408C0
:1018F000CE0101960E94830862E080E00E945408B5
:1019000088E592E00E9442080E942009182F88234F
:1019100019F3843411F40E9489058A3249F440E0B5
:1019200050E06BE771E0CE0101960E94E2020FC029
:10193000833269F489819A81009729F00E94D10C41
:101940006B017C0115C0C12CD12C760111C01D8703
:101950001E8641E050E0BE01635F7F4FCE010196DD
:101960000E94A202B9CFCE0101960E94D0029DCF63
:101970000E943708CE0101960E941A03CE010796F5
:101980000E941A03C6012E960FB6F894DEBF0FBE52
:10199000CDBFDF91CF911F91FF90EF90DF90CF905F
:1019A00008951F93FC0199278827BC01E8941191A1
:1019B0001032E9F3193010F01E30C8F31B3251F029
:1019C0001D3249F4689406C00E94F80C610F711D25
:1019D000811D911D119110531A30B0F33EF4909572
:1019E0008095709561957F4F8F4F9F4F1F91089500
:1019F000592F482F372F262F660F771F881F991FC3
:101A0000660F771F881F991F620F731F841F951F12
:101A1000660F771F881F991F0895BB27FA01A62F0D
:101A20006217710581059105330B30FB66F0AA271B
:101A3000660F771F881F991FAA1FA21710F0A21BFD
:101A400063953850A9F7A05DAA3308F0A95DA1936A
:101A500036F7B111B1931082CA010C942F0DDC013D
:101A6000FC01672F71917723E1F7329704C07C91D5
:101A70006D9370836291AE17BF07C8F308952F92DC
:101A80003F924F925F926F927F928F929F92AF920E
:101A9000BF92CF92DF92EF92FF920F931F93CF935B
:101AA000DF93CDB7DEB7CA1BDB0B0FB6F894DEBFF2
:101AB0000FBECDBF09942A88398848885F846E8418
:101AC0007D848C849B84AA84B984C884DF80EE8062
:101AD000FD800C811B81AA81B981CE0FD11D0FB66B
:101AE000F894DEBF0FBECDBFED010895EE0FFF1FCE
:101AF0000590F491E02D09940F931F93CF93DF93FA
:101B00008230910510F482E090E0E091B803F0910A
:101B1000B90320E030E0A0E0B0E0309719F1408157
:101B200051810281138148175907C8F0841795071E
:101B300069F4109731F012960C93129713961C9338
:101B400027C00093B8031093B90322C021153105B3
:101B500019F04217530718F49A01BD01EF01DF0194
:101B6000F801DBCF21153105F9F0281B390B2430A2
:101B7000310580F48A819B816115710521F0FB019B
:101B80009383828304C09093B9038093B803FE01CA
:101B9000329644C0FE01E20FF31F819391932250CD
:101BA0003109398328833AC02091B6033091B703B5
:101BB000232B41F420912401309125013093B70368
:101BC0002093B60320912201309123012115310584
:101BD00041F42DB73EB74091260150912701241BB7
:101BE000350BE091B603F091B703E217F307A0F4C9
:101BF0002E1B3F0B2817390778F0AC014E5F5F4F63
:101C00002417350748F04E0F5F1F5093B7034093DA
:101C1000B6038193919302C0E0E0F0E0CF01DF9141
:101C2000CF911F910F910895CF93DF93009709F4FF
:101C300081C0FC01329713821282A091B803B09147
:101C4000B903109781F420813181820F931F209175
:101C5000B6033091B7032817390751F5F093B7034E
:101C6000E093B60367C0ED0120E030E0CE17DF0758
:101C700040F44A815B819E0141155105F1F0EA0172
:101C8000F5CFD383C28340815181840F951FC8173C
:101C9000D90759F488819981840F951F0296918301
:101CA00080838A819B81938382832115310529F466
:101CB000F093B903E093B8033DC0E901FB83EA83E5
:101CC00049915991C40FD51FEC17FD0761F480812C
:101CD0009181840F951F0296E901998388838281FF
:101CE00093819B838A83E0E0F0E012968D919C9132
:101CF0001397009719F0FD01DC01F7CF8D919C91AE
:101D000011979D012E5F3F4F820F931F2091B603C5
:101D10003091B7032817390769F4309729F41092E6
:101D2000B9031092B80302C013821282B093B703B2
:101D3000A093B603DF91CF910895A0E0B0E0E3EA6D
:101D4000FEE00C94430DEC01009721F4CB010E94BE
:101D50007C0DB4C0FC01E60FF71F9C012250310935
:101D6000E217F30708F4A8C0D9010D911C9111974F
:101D700006171707B0F00530110508F49BC0C8011D
:101D800004978617970708F495C002501109061B9F
:101D9000170B019311936D937C93CF010E94140E46
:101DA00089C05B01A01AB10A4C01800E911EA0915E
:101DB000B803B091B903612C712CE12CF12C109770
:101DC00009F446C08D919C911197A815B905B1F5FC
:101DD0006C0142E0C40ED11CCA14DB0478F14C0142
:101DE0008A189B08640142E0C40ED11C1296BC9074
:101DF00012971396AC91B5E0CB16D10440F0B282A5
:101E0000A38391828082D9016D937C9309C00E5F78
:101E10001F4F800F911FF90191838083EB2DFA2FC3
:101E2000E114F10431F0D7011396FC93EE9312976D
:101E300041C0F093B903E093B8033CC0681679063B
:101E400008F43C017D0112960D90BC91A02DB7CFF6
:101E50008091B6039091B70388169906E1F466164F
:101E60007706C8F48091220190912301009741F4F4
:101E70008DB79EB74091260150912701841B950B89
:101E8000E817F907C8F4F093B703E093B603F90134
:101E9000718360830FC0CB010E947C0D7C01009791
:101EA00059F0A801BE010E94680FCE010E94140ED5
:101EB000C70104C0CE0102C080E090E0CDB7DEB71C
:101EC000EEE00C945F0D81E090E0F8940C94780FB4
:101ED000FB01DC0102C001900D9241505040D8F747
:101EE0000895FB01DC0101900D920020E1F70895B7
:041EF000F894FFCF94
:101EF4000A0000005A000000000006070809020357
:101F040004053132334134353642373839432A30C7
:101F140023440000BA038000000040001400540071
:101F24000000000043011601F001EA000E01FA006E
:101F3400EB000000000055048E00F001EF010000EA
:101F44000000F701F301240230005A617379703AFA
:101F5400200050727A657277613A2000437A617387
:101F64005A3A2000437A6173503A200028442920C9
:101F74004D454E5500284329204E6173746177798D
:101F8400004E6173746177793A2000284129202D2D
:101F940020507261636100284229202D2050727AFA
:101FA4006572776100284429202D204175746F00E3
:101FB40070726163790070727A65727779004D6529
:101FC4006E753A004175746F202841290052656B83
:101FD40061202842290054727962207265637A6E06
:101FE4007900284129202D205A4153595020535417
:101FF40041525400284229202D205A41535950203F
:1020040053544F5000284429202D204D454E55004F
:10201400284129202D205A415359502053544152CC
:1020240054202A00284229202D205A415359502057
:1020340053544F5020202A00437A617320003A20E1
:10204400312D3939393973002A20736B6173756AFC
:0A2054002C202320656E74657200D5
:00000001FF
