:100000000C9462000C948A000C948A000C948A0070
:100010000C948A000C948A000C948A000C948A0038
:100020000C948A000C948A000C948A000C948A0028
:100030000C948A000C948A000C948A000C948A0018
:100040000C9458020C948A000C948A000C948A0038
:100050000C948A000C948A000C948A000C948A00F8
:100060000C94E7030C948A00000000002400270091
:100070002A0000000000250028002B0000000000DE
:1000800023002600290004040404040404040202DA
:100090000202020203030303030301020408102007
:1000A0004080010204081020010204081020000012
:1000B0000008000201000003040700000000000027
:1000C0000000E10B11241FBECFEFD8E0DEBFCDBF93
:1000D00023E0A6E7B2E001C01D92AE3BB207E1F714
:1000E00012E0A0E0B1E0EAE4FFE102C005900D9269
:1000F000A637B107D9F710E0C2E6D0E004C02197D7
:10010000FE010E94A10DC136D107C9F70E94EA0A7B
:100110000C94A30F0C94000008950895CF92DF92E1
:10012000EF92FF920F931F93CF93DF936C017A01AD
:100130008B01C0E0D0E0CE15DF0581F0D8016D91D4
:100140008D01D601ED91FC910190F081E02DC60169
:100150000995892B11F02196EECF7E01C701DF9121
:10016000CF911F910F91FF90EF90DF90CF90089566
:1001700085ED8093BC008091BC0084FDFCCF109283
:10018000250308954091B602262F30E0240F311D3B
:1001900021323105DCF4209125032430C9F4FC011F
:1001A00080E090E0861758F43091B6022191DC018E
:1001B000AA56BD4FA30FB11D2C930196F3CF80918A
:1001C000B602680F6093B60280E0089581E008955A
:1001D00082E008950895E091290380912803E817AB
:1001E00030F4F0E0EA58FD4F808190E008958FEF01
:1001F0009FEF08959091290380912803981750F458
:10020000E92FF0E0EA58FD4F208130E09F5F9093A6
:10021000290302C02FEF3FEFC90108958091280301
:1002200090E020912903821B91090895CF92DF92DB
:10023000EF92FF920F931F93CF93DF937C01CB013B
:100240008A012091FD02222389F0EB016B01C40E8B
:10025000D51ECC15DD0569F06991D701ED91FC91B2
:100260000190F081E02DC7010995F3CF642F0E9422
:10027000C200C801DF91CF911F910F91FF90EF90C5
:10028000DF90CF900895CF93DF931F92CDB7DEB765
:1002900069832091FD022223D1F020912603203290
:1002A00040F021E030E0FC013383228380E090E0E5
:1002B00015C080912703E82FF0E0E250FD4F9981AF
:1002C00090838F5F809327038093260305C061E0AE
:1002D000CE0101960E94C20081E090E00F90DF9174
:1002E000CF910895CF93FC01C48121E02093FD02BA
:1002F000C0931E0310922703109226038385682B58
:1003000083E393E00E94430190912603913208F029
:1003100045C0809125038111FCCF82E080932503A5
:1003200081E0809324038FEF8093FC021092FB0204
:100330009093FA02AEEFB2E0EAEDF2E080E09817B7
:1003400021F02D9121938F5FFACF1092D9028091E5
:10035000D902CC0FC82BC093D902809123038130DE
:1003600061F4109223038091D9028093BB008091A5
:10037000BC0083FDF8CF85EC01C085EE8093BC0006
:10038000809125038230E1F38091FC028F3F31F0B0
:100390008091FC02803211F08091FC0210922703C0
:1003A000109226031092FD02CF9108950F931F9390
:1003B000CF938C01C62F0E9472016C2F6460C8011C
:1003C0000E9472016C2F6B7FC8010E94720183EC46
:1003D00090E00197F1F7CF911F910F910895089543
:1003E00080E090E00895862F642F0C94F908862F02
:1003F000642F0C9428090E948E0F0F931F93CF93A4
:10040000DF93EC0188819981009729F02A813B8153
:100410002617370788F48B016F5F7F4F0E94C80E45
:10042000009761F0998388831B830A832C813D8127
:10043000232B11F4FC01108281E001C080E0DF91E8
:10044000CF911F910F910895862F0C94D0083FB73C
:10045000F89480912F0390913003A0913103B091D3
:10046000320326B5A89B05C02F3F19F00196A11DA8
:10047000B11D3FBFBA2FA92F982F8827820F911D3A
:10048000A11DB11DBC01CD0142E0660F771F881F81
:10049000991F4A95D1F708952FB7F89460912B03CF
:1004A00070912C0380912D0390912E032FBF0895FE
:1004B0001F920F920FB60F9211242F933F938F9399
:1004C0009F93AF93BF9380912B0390912C03A091A6
:1004D0002D03B0912E0330912A0323E0230F2D37F3
:1004E00020F40196A11DB11D05C026E8230F029638
:1004F000A11DB11D20932A0380932B0390932C03FD
:10050000A0932D03B0932E0380912F03909130037D
:10051000A0913103B09132030196A11DB11D8093CA
:100520002F0390933003A0933103B0933203BF9114
:10053000AF919F918F913F912F910F900FBE0F9090
:100540001F901895EF92FF920F931F93CF93DF9315
:100550006115710511F480E01CC041155105C1F011
:100560007B01EC018C819D818A01080F191FB80164
:10057000CE010E94FD01882371F3288139818C818D
:100580009D81B701820F931F0E949C0F1D830C83D6
:1005900081E0DF91CF911F910F91FF90EF9008952F
:1005A000CF93DF93EC0188819981009711F00E942D
:1005B0003F0E198218821D821C821B821A82DF91D3
:1005C000CF910895CF93DF93EC016115710561F030
:1005D000FB0101900020E9F73197AF01461B570B53
:1005E0000E94A202811103C0CE010E94D002CE015E
:1005F000DF91CF910895EF92FF920F931F93CF93C6
:10060000DF93EC017B018A01BA010E94FD01811197
:1006100004C0CE010E94D00207C01D830C83B70125
:10062000888199810E949C0FCE01DF91CF911F910B
:100630000F91FF90EF900895CF93DF93EC01FB01B2
:100640008617970761F0608171816115710529F046
:10065000448155810E94FB0202C00E94D002CE015B
:10066000DF91CF910895FC01808191810C943F0E20
:10067000FC0111821082138212821582148261158C
:10068000710551F0FB0101900020E9F73197AF01AE
:10069000461B570B0C94FB0208958F929F92AF92CA
:1006A000BF92EF92FF920F931F93CF93DF93CDB73B
:1006B000DEB7A1970FB6F894DEBF0FBECDBF7C01A9
:1006C0004A015B01FC0111821082138212821582A1
:1006D00014822AE08E010F5F1F4FA801C501B401EB
:1006E0000E94380DF80101900020E9F73197AF0121
:1006F000401B510BB801C7010E94FB02D501C40188
:100700000A97A109B1098A359105A105B10588F4B7
:100710001A8219821C821B821E821D82B701C801A7
:100720000E941C0367EB71E0C8010E94E202BC0159
:1007300019C0FAE08F169104A104B104C8F468E569
:1007400071E0C8010E943803F7014481558160813E
:100750007181C8010E94A202811103C0C8010E94D8
:10076000D002B801C7010E941C03C8010E943303D4
:10077000C701A1960FB6F894DEBF0FBECDBFDF91C3
:10078000CF911F910F91FF90EF90BF90AF909F90EE
:100790008F9008950F931F93CF93DF938C01C62FF3
:1007A000D42F607F642B0E94D60180E1C89FB001E6
:1007B00011246D2BC801DF91CF911F910F910C94E3
:1007C000D60141E00E94CA0381E090E008951F92A3
:1007D0000F920FB60F9211242F933F934F935F9375
:1007E0006F937F938F939F93AF93BF93EF93FF93F9
:1007F0008091B900887F803609F49CC068F5883202
:1008000009F45BC090F4803109F454C038F48823B3
:1008100009F4F6C0883009F44DC0F6C0883109F4F7
:100820004CC0803209F45DC0EFC0803409F468C068
:1008300048F4803309F455C0883309F0E5C080934B
:10084000FC02D8C0803509F44FC0883509F45DC07A
:10085000883409F0D9C0D6C0883909F4C7C0A8F4D3
:10086000883709F467C038F4883609F463C08037E4
:1008700009F460C0C9C0883809F4B8C0803909F4E7
:100880005FC0803809F0C0C05BC0803B09F486C0FF
:1008900038F4803A09F466C0883A09F47FC0B4C0DD
:1008A000803C09F4A7C0883C09F4A4C0883B09F443
:1008B0008AC0AAC08091D90210C09091FB02809199
:1008C000FA02981770F5E091FB0281E08E0F809399
:1008D000FB02F0E0E652FD4F80818093BB0085EC87
:1008E00086C08093FC028EC0E091FB0281E08E0FF7
:1008F0008093FB028091BB00F0E0E652FD4F8083C5
:100900009091FB028091FA026EC0E091FB0281E0BF
:100910008E0F8093FB028091BB00F0E0E652FD4F0A
:1009200080838091240381116DC081E08093230333
:1009300084EA61C083E0809325031092D802CFCF70
:100940008091D802803208F051C0E091D80281E055
:100950008E0F8093D8028091BB00F0E0E854FD4FE9
:100960008083BDCF85EC8093BC00109225038091DD
:10097000D802803230F4E091D802F0E0E854FD4F24
:1009800010826091D80270E0E0911F03F091200383
:1009900088EB92E009951092D80236C084E08093EB
:1009A00025031092B7021092B602E0912103F09154
:1009B000220309958091B602811105C081E08093E0
:1009C000B60210929602E091B70281E08E0F8093FA
:1009D000B702F0E0EA56FD4F80818093BB00909112
:1009E000B7028091B602981708F479CF85E8809312
:1009F000BC000AC085EC8093BC001092250304C0A3
:100A00001092FC020E94B800FF91EF91BF91AF914C
:100A10009F918F917F916F915F914F913F912F9116
:100A20000F900FBE0F901F901895CF93DF9300D0BB
:100A300000D000D0CDB7DEB70E947B0860E08AE02E
:100A40000E94F90860E080E00E9498088AE591E041
:100A50000E94860861E080E00E94980884E691E0A8
:100A60000E94860862E080E00E94980880E791E09A
:100A70000E94860863E080E00E9498088EE791E07B
:100A80000E9486080E9464098823E1F28134C9F437
:100A90000E947B0869E871E0CE0101960E9438034C
:100AA000CE0101960E94580C092E000CAA0BBB0B1C
:100AB0008093000190930101A0930201B093030180
:100AC0001AC08234E9F40E947B086FE871E0CE011D
:100AD00001960E943803CE0101960E94580C092EFF
:100AE000000CAA0BBB0B8093040190930501A0930B
:100AF0000601B0930701CE0101960E943303A2CFF5
:100B0000843409F09FCF0E947B080E94BB068F921D
:100B10009F92AF92BF92CF92DF92EF92FF920F938C
:100B20001F93CF93DF9300D000D000D0CDB7DEB7B6
:100B30004B015C0169017A0160E080E00E94980845
:100B400087E991E00E94860860E08AE00E949808A8
:100B5000B501A401CE0101960E944D03CE0101967C
:100B60000E94C708CE0101960E94330361E080E035
:100B70000E9498088FE991E00E94860861E08AE06F
:100B80000E949808B701A601CE0101960E944D036C
:100B9000CE0101960E94C708CE0101960E94330340
:100BA00062E080E00E94980889EA91E00E9486084D
:100BB00062E087E00E949808409100015091010195
:100BC0006091020170910301CE0101960E944D03D4
:100BD000CE0101960E94C708CE0101960E94330300
:100BE00062E08AE00E94980881EB91E00E9486080A
:100BF00062E081E10E949808409104015091050152
:100C00006091060170910701CE0101960E944D038B
:100C1000CE0101960E94C708CE0101960E943303BF
:100C200063E080E00E94980889EB91E00E948608CA
:100C300063E089E00E94980882EC91E00E948608B7
:100C40000BE010E0C12CD12C7601C3940E94640902
:100C5000882309F473C0833431F460E08AE00E9491
:100C6000F9080E941505843431F460E08AE00E949E
:100C7000F9080E94F806813361F480910001909197
:100C80000101A0910201B09103010196A11DB11DC6
:100C90001BC0873311F58091000190910101A09153
:100CA0000201B091030182309105A105B10548F41C
:100CB000C0920001D0920101E0920201F092030182
:100CC0003DC00197A109B1098093000190930101F2
:100CD000A0930201B093030131C0833361F480918A
:100CE000040190910501A0910601B09107010196C0
:100CF000A11DB11D1BC0893309F58091040190919C
:100D00000501A0910601B091070182309105A1056E
:100D1000B10548F4C0920401D0920501E0920601A9
:100D2000F09207010BC00197A109B109809304015A
:100D300090930501A0930601B093070164E670E06B
:100D400080E090E00E94B00A0150110909F07ECFC6
:100D500026960FB6F894DEBF0FBECDBFDF91CF91C0
:100D60001F910F91FF90EF90DF90CF90BF90AF90C9
:100D70009F908F900895C0900001D0900101E09065
:100D80000201F09003018090040190900501A09071
:100D90000601B0900701A5019401C701B6010E94A8
:100DA000870582E0C816D104E104F10448F061E04F
:100DB0008AE00E94F90881E0C81AD108E108F10828
:100DC00081E0881A9108A108B10882E0C816D10410
:100DD000E104F10438F460E08AE00E94F908C12CD3
:100DE000D12C760181149104A104B104A1F6C3CFE2
:100DF0000E947B0860E080E00E9498088EEC91E001
:100E00000E94860861E080E00E94980884ED91E0ED
:100E10000E94860862E080E00E9498088FED91E0D1
:100E20000E94860863E080E00E9498088AEE91E0C4
:100E30000E9486080E9464098823E1F2813409F047
:100E40003BC00E947B088090000190900101A0901F
:100E50000201B0900301C0900401D0900501E09020
:100E60000601F090070161E08AE00E94F908A701FD
:100E70009601C501B4010E94870581E0881A910896
:100E8000A108B10881F78090000190900101A09025
:100E90000201B090030160E08AE00E94F908A70116
:100EA0009601C501B4010E94870581E0C81AD108E6
:100EB000E108F10881F7CFCF823421F40E947B084A
:100EC0000E94BB06833409F095CF0E947B0800E0A6
:100ED00010E060E080E00115110569F40E949808B7
:100EE00083EF91E00E94860861E080E00E9498080C
:100EF0008FEF91E00FC001301105A9F40E9498080E
:100F000083EF91E00E94860861E080E00E949808EB
:100F10008DE292E00E94860862E080E00E949808DC
:100F200081E192E014C00E94980883EF91E00E9452
:100F3000860861E080E00E9498088FEF91E00E94AF
:100F4000860862E080E00E94980881E492E00E94B6
:100F5000860863E080E00E94980882E292E00E94A6
:100F600086080E946409C82F882309F4B2CF0E9422
:100F70007B08C13439F461E08AE00E94F90801E09D
:100F800010E0A7CFC23439F460E08AE00E94F9088B
:100F900002E010E09ECFC43409F09BCF60E08AE00D
:100FA0000E94F9080E94F80696E0899FD00111245A
:100FB000A55BBC4F90967C936E935F9791E0919662
:100FC0009C9391979091B703E091B803F091B90386
:100FD000992339F0309751F0811108C0809167034F
:100FE00004C0309719F05C968C9109940895833071
:100FF00081F028F4813099F08230A1F00895873093
:10100000A9F08830B9F08430D1F4809180008F7DD0
:1010100003C0809180008F7780938000089584B50D
:101020008F7702C084B58F7D84BD08958091B00014
:101030008F7703C08091B0008F7D8093B0000895BA
:101040000F931F93CF93DF93C82FD62F86E0C89FAF
:10105000F0011124E55BFC4F11A2878D90A1813036
:101060009105D9F040F082309105A9F10397F1F58F
:1010700060E070E034C06623C9F161E070E08C2F5D
:101080000E94D4070E944C026093A3037093A403B0
:101090008093A5039093A60329C00E944C0200915F
:1010A000A3031091A4032091A5033091A603AB01E3
:1010B000BC01401B510B620B730B8091B5039091E7
:1010C000B603A0E0B0E084179507A607B70718F4A9
:1010D00062E070E004C0D11109C063E070E08C2FC1
:1010E000DF91CF911F910F910C94D407DF91CF9195
:1010F0001F910F91089540E061E08FE393E00E941B
:10110000CA038BE39FE10197F1F70895009769F017
:10111000FC0101900020E9F73197AF01481B590B02
:10112000BC018FE393E00C948E0080E090E0089582
:10113000CF93DF93CDB7DEB728970FB6F894DEBF15
:101140000FBECDBF98E0E8E2F1E0DE01119601901C
:101150000D929A95E1F790914703961710F46FEF6F
:10116000690FFE013196E60FF11DE60FF11D60815A
:10117000680F606840E08FE393E028960FB6F8941C
:10118000DEBF0FBECDBFDF91CF910C94CA03FC012F
:1011900044815581608171818FE393E00C948E00CE
:1011A000CF93DF93282F30E0F901E255FF4F849170
:1011B000F901E656FF4FD491F901EA57FF4FC49168
:1011C000CC2391F081110E94F707EC2FF0E0EE0F95
:1011D000FF1FE458FF4FA591B491EC91ED2381E0FE
:1011E00090E021F480E002C080E090E0DF91CF91B8
:1011F00008951F93CF93DF93282F30E0F901E25534
:10120000FF4F8491F901E656FF4FD491F901EA5757
:10121000FF4FC491CC23C1F0162F81110E94F70714
:10122000EC2FF0E0EE0FFF1FEE58FF4FA591B491A9
:101230009FB7F894111104C08C91D095D82302C0A7
:10124000EC91DE2BDC939FBFDF91CF911F9108952E
:10125000CF93DF9390E0FC01E656FF4F2491FC0111
:10126000EA57FF4F8491882361F190E0880F991F1E
:10127000FC01E859FF4FC591D491FC01EE58FF4F96
:10128000A591B491611109C09FB7F8948881209508
:1012900082238883EC912E230BC0623061F49FB7C8
:1012A000F8948881322F309583238883EC912E2BFC
:1012B0002C939FBF06C08FB7F894E8812E2B28830C
:1012C0008FBFDF91CF9108956F927F928F929F92FF
:1012D000AF92BF92CF92DF92EF92FF920F931F9344
:1012E000CF93DF9381E08093B7030E944C0200917B
:1012F000A7031091A8032091A9033091AA03AB0181
:10130000BC01401B510B620B730B8091B303909196
:10131000B403A0E0B0E084179507A607B70708F06C
:10132000E6C0C0E08091B103C81730F0712C812C69
:10133000912C5401839440C0E091AD03F091AE0331
:10134000EC0FF11D62E080810E942809CF5FEACF97
:10135000C62DD0E0E091AD03F091AE03EC0FFD1F80
:1013600080810E94D0082496CC0FDD1FC55BDC4F26
:10137000892B09F04BC0888199818C299D299983FB
:10138000888363948091B103681610F3E091AF03F2
:10139000F091B003E00FF11F61E080810E94F90835
:1013A0008091AF039091B003FC01E00FF11F60E06A
:1013B00080810E94280973948091B203781658F5B1
:1013C000072D10E0E091AF03F091B003E00FF11FA3
:1013D00061E080810E942809E091AF03F091B003A1
:1013E000E00FF11F60E080810E94F908D501C4017F
:1013F000072C04C0880F991FAA1FBB1F0A94D2F79D
:101400006C017C01E094F094612CBCCF88819981BF
:101410008E219F21B4CF2BE4E22E23E0F22EF701A0
:101420008FEF9FEF278D30A1232B21F4148E968F01
:10143000858F11A2369623E0E738F20799F7C0E0CE
:1014400096E0D92E8091B103C81758F5D0E00C2F43
:1014500010E0000F111F0D5A1C4F2091B203D2173C
:10146000F0F4F801408151810D2E02C05695479548
:101470000A94E2F7642F6170C29F900111242D0F2E
:10148000311DEBE4F3E080E0A58DB68D2A173B0714
:1014900009F44DC08F5F36968A30B1F72CC0CF5F0C
:1014A000D1CFC0E0F70181A18111C1E0F6E0EF0EDC
:1014B000F11C27E8E21623E0F206A1F70E944C0295
:1014C0006093A7037093A8038093A9039093AA0342
:1014D000CC2369F080916C03882349F080916A03E2
:1014E00090916B03019719F4809167032AC01092C1
:1014F000B70380E026C040FF1CC0EBE4F3E080E0CF
:1015000090E0448D411117C0E091AB03F091AC0322
:10151000E20FF31F4081D89EF001D99EF00D1124F7
:10152000E55BFC4F448F368F258F10A2178E0E94EB
:101530002008DF5F92CF019636968A30910509F731
:10154000F8CFDF91CF911F910F91FF90EF90DF9037
:10155000CF90BF90AF909F908F907F906F900895A5
:101560008F929F92AF92BF92CF92DF92EF92FF92B3
:101570006B017C010E9427024B015C01C114D10464
:10158000E104F104F1F00E942702DC01CB0188198B
:101590009909AA09BB09883E9340A105B10570F3DA
:1015A00021E0C21AD108E108F10888EE880E83E034
:1015B000981EA11CB11CC114D104E104F10419F757
:1015C000DDCFFF90EF90DF90CF90BF90AF909F90D6
:1015D0008F900895789484B5826084BD84B58160CD
:1015E00084BD85B5826085BD85B5816085BD8091EE
:1015F0006E00816080936E00109281008091810066
:10160000826080938100809181008160809381005D
:10161000809180008160809380008091B10084601F
:101620008093B1008091B00081608093B000809180
:101630007A00846080937A0080917A00826080933F
:101640007A0080917A00816080937A0080917A009C
:10165000806880937A001092C10061E08AE00E9465
:10166000280960E08AE00E94F9080E944C0210926A
:101670002903109228031092270310922603109238
:10168000250381E0809324031092230361E082E12B
:101690000E94F90861E083E10E94F9088091B90095
:1016A0008E7F8093B9008091B9008D7F8093B900BF
:1016B00088E48093B80085E48093BC008CE890E0D7
:1016C00090932203809321038DE890E09093200370
:1016D00080931F031092440380914903823018F0D5
:1016E00098E0909344038093470362E370E080E0C6
:1016F00090E00E94B00A60914A038FE393E00E9459
:10170000720168EE73E080E090E00E94B00A60E34E
:101710008FE393E00E94D601CBE4D6E4CE0101979B
:10172000F1F760E38FE393E00E94D6012197F1F790
:1017300060E38FE393E00E94D60183E592E0019796
:10174000F1F760E28FE393E00E94D60160914403D9
:10175000606240E08FE393E00E94CA0384E08093DC
:10176000450340E06CE08FE393E00E94CA030E94CF
:101770007B0882E08093460340E066E08FE393E0DD
:101780000E94CA0340E062E08FE393E00E94CA0334
:101790008BE39FE10197F1F788E080934A0360E0D3
:1017A0008FE393E00E947201609146036E7F609325
:1017B0004603646040E08FE393E00E94CA030E9406
:1017C000F806109236031092350388EE93E0A0E0FD
:1017D000B0E08093370390933803A0933903B0931C
:1017E0003A0384E391E0909334038093330310929F
:1017F0004D0310925103109250031092520382E550
:1018000091E090934C0380934B03EBE4F3E087E883
:1018100093E0148E10A2178E11A236968E179F0792
:10182000C1F78EE091E09093AE038093AD038AE020
:1018300091E09093B0038093AF0384E08093B10371
:101840008093B20322E131E03093AC032093AB03E9
:101850002AE030E03093B4032093B30324EF31E067
:101860003093B6032093B5031092B9031092B803D6
:101870001092A7031092A8031092A9031092AA0332
:101880001092B703109242031092410326E431E014
:101890003093400320933F0397E29093430394E1F6
:1018A000909348038093490310924A030C944C028E
:1018B0000F931F93CF93DF93CDB7DEB72E970FB65D
:1018C000F894DEBF0FBECDBF8C0165E572E0CE019E
:1018D00001960E943803F80144815581608171812D
:1018E000CE0101960E94A202811104C0CE01019690
:1018F0000E94D0026BE572E0CE0101960E94E202E6
:1019000018861F821A8619861C861B86BC01CE018A
:1019100007960E941C03CE0101960E94330368EBD8
:1019200071E0CE0101960E94380360E080E00E94E1
:101930009808CE0107960E94C70861E080E00E94E7
:101940009808CE0101960E94C70862E080E00E94DC
:10195000980884E692E00E9486080E946409182F85
:10196000882319F3843411F40E9415058A3249F44E
:1019700040E050E068EB71E0CE0101960E94FB026E
:1019800013C0833289F489819A81009719F00E94EB
:10199000FC0C03C060E070E0CB018B010E947B086F
:1019A000093711059CF40CC01D871E8641E050E0EC
:1019B000BE01635F7F4FCE0101960E94A202B5CFA8
:1019C000023011052CF401E010E002C008E710E03D
:1019D000CE0101960E943303CE0107960E94330385
:1019E000C8012E960FB6F894DEBF0FBECDBFDF91B3
:1019F000CF911F910F9108951F93FC01992788277C
:101A0000BC01E89411911032E9F3193010F01E3046
:101A1000C8F31B3251F01D3249F4689406C00E948D
:101A2000230D610F711D811D911D119110531A30ED
:101A3000B0F33EF490958095709561957F4F8F4FF0
:101A40009F4F1F910895592F482F372F262F660F2C
:101A5000771F881F991F660F771F881F991F620FB6
:101A6000731F841F951F660F771F881F991F089586
:101A7000BB27FA01A62F6217710581059105330B6B
:101A800030FB66F0AA27660F771F881F991FAA1FD1
:101A9000A21710F0A21B63953850A9F7A05DAA33D6
:101AA00008F0A95DA19336F7B111B1931082CA0174
:101AB0000C945A0DDC01FC01672F71917723E1F73B
:101AC000329704C07C916D9370836291AE17BF070B
:101AD000C8F308952F923F924F925F926F927F9238
:101AE0008F929F92AF92BF92CF92DF92EF92FF922E
:101AF0000F931F93CF93DF93CDB7DEB7CA1BDB0BDA
:101B00000FB6F894DEBF0FBECDBF09942A8839887E
:101B100048885F846E847D848C849B84AA84B98485
:101B2000C884DF80EE80FD800C811B81AA81B98191
:101B3000CE0FD11D0FB6F894DEBF0FBECDBFED01A5
:101B40000895EE0FFF1F0590F491E02D09940F9377
:101B50001F93CF93DF938230910510F482E090E0E1
:101B6000E091BC03F091BD0320E030E0A0E0B0E0E4
:101B7000309719F14081518102811381481759072B
:101B8000C8F08417950769F4109731F012960C93FA
:101B9000129713961C9327C00093BC031093BD03A8
:101BA00022C02115310519F04217530718F49A0184
:101BB000BD01EF01DF01F801DBCF21153105F9F09F
:101BC000281B390B2430310580F48A819B816115F3
:101BD000710521F0FB019383828304C09093BD03C0
:101BE0008093BC03FE01329644C0FE01E20FF31F56
:101BF0008193919322503109398328833AC02091EF
:101C0000BA033091BB03232B41F42091240130917E
:101C100025013093BB032093BA0320912201309118
:101C200023012115310541F42DB73EB7409126011E
:101C300050912701241B350BE091BA03F091BB03AF
:101C4000E217F307A0F42E1B3F0B2817390778F093
:101C5000AC014E5F5F4F2417350748F04E0F5F1FF2
:101C60005093BB034093BA038193919302C0E0E089
:101C7000F0E0CF01DF91CF911F910F910895CF93A5
:101C8000DF93009709F481C0FC013297138212821E
:101C9000A091BC03B091BD03109781F420813181E4
:101CA000820F931F2091BA033091BB032817390785
:101CB00051F5F093BB03E093BA0367C0ED0120E058
:101CC00030E0CE17DF0740F44A815B819E01411569
:101CD0005105F1F0EA01F5CFD383C28340815181F0
:101CE000840F951FC817D90759F488819981840FEB
:101CF000951F0296918380838A819B81938382833F
:101D00002115310529F4F093BD03E093BC033DC0D8
:101D1000E901FB83EA8349915991C40FD51FEC1760
:101D2000FD0761F480819181840F951F0296E9017E
:101D300099838883828193819B838A83E0E0F0E0AA
:101D400012968D919C911397009719F0FD01DC017B
:101D5000F7CF8D919C9111979D012E5F3F4F820F80
:101D6000931F2091BA033091BB032817390769F4F8
:101D7000309729F41092BD031092BC0302C0138265
:101D80001282B093BB03A093BA03DF91CF91089561
:101D9000A0E0B0E0EEECFEE00C946E0DEC010097DC
:101DA00021F4CB010E94A70DB4C0FC01E60FF71F80
:101DB0009C0122503109E217F30708F4A8C0D901A9
:101DC0000D911C91119706171707B0F005301105FA
:101DD00008F49BC0C80104978617970708F495C0BC
:101DE00002501109061B170B019311936D937C93FD
:101DF000CF010E943F0E89C05B01A01AB10A4C01BD
:101E0000800E911EA091BC03B091BD03612C712C7A
:101E1000E12CF12C109709F446C08D919C911197FB
:101E2000A815B905B1F56C0142E0C40ED11CCA1465
:101E3000DB0478F14C018A189B08640142E0C40E6F
:101E4000D11C1296BC9012971396AC91B5E0CB16AC
:101E5000D10440F0B282A38391828082D9016D9334
:101E60007C9309C00E5F1F4F800F911FF901918372
:101E70008083EB2DFA2FE114F10431F0D701139692
:101E8000FC93EE93129741C0F093BD03E093BC0323
:101E90003CC06816790608F43C017D0112960D904D
:101EA000BC91A02DB7CF8091BA039091BB03881647
:101EB0009906E1F466167706C8F4809122019091A4
:101EC0002301009741F48DB79EB7409126015091B0
:101ED0002701841B950BE817F907C8F4F093BB039F
:101EE000E093BA03F901718360830FC0CB010E94B4
:101EF000A70D7C01009759F0A801BE010E94930F25
:101F0000CE010E943F0EC70104C0CE0102C080E096
:101F100090E0CDB7DEB7EEE00C948A0D81E090E062
:101F2000F8940C94A30FFB01DC0102C001900D9208
:101F300041505040D8F70895FB01DC0101900D920B
:0A1F40000020E1F70895F894FFCFA8
:101F4A000A0000005A000000000006070809020300
:101F5A0004053132334134353642373839432A3071
:101F6A0023440000BE038000000040001400540017
:101F7A000000000043011601F001EA000E01FA0018
:101F8A00EB0000000000E1038E00F001EF01000009
:101F9A000000F701F301240230004E617374617787
:101FAA00793A2000284129202D205A61737970003E
:101FBA00284229202D2050727A65727761002844C0
:101FCA0029202D204175746F007072616379007049
:101FDA00727A65727779005A617379703A20005083
:101FEA00727A657277613A2000437A61735A3A20AD
:101FFA0000437A6173503A2000284429204D454E07
:10200A005500284329204E617374617779004D6524
:10201A006E753A004175746F2031202841290041BC
:10202A0075746F2032202842290052656B6120287E
:10203A0043290054727962207265637A6E790028A6
:10204A004129202D205A415359502053544152546A
:10205A0000284229202D205A415359502053544FC9
:10206A005000284429202D204D454E55002841294D
:10207A00202D205A41535950205354415254202A5A
:10208A0000284229202D205A415359502053544F99
:10209A005020202A00437A617320003A20312D31E2
:1020AA00323073002A20736B6173756A2C202320E7
:0620BA00656E7465720002
:00000001FF
