:100000000C9462000C948A000C948A000C948A0070
:100010000C948A000C948A000C948A000C948A0038
:100020000C948A000C948A000C948A000C948A0028
:100030000C948A000C948A000C948A000C948A0018
:100040000C9458020C948A000C948A000C948A0038
:100050000C948A000C948A000C948A000C948A00F8
:100060000C9449040C948A0000000000240027002E
:100070002A0000000000250028002B0000000000DE
:1000800023002600290004040404040404040202DA
:100090000202020203030303030301020408102007
:1000A0004080010204081020010204081020000012
:1000B0000008000201000003040700000000000027
:1000C0000000D40B11241FBECFEFD8E0DEBFCDBFA0
:1000D00023E0A8E9B2E001C01D92A43EB207E1F717
:1000E00012E0A0E0B1E0ECEFFFE102C005900D925C
:1000F000A839B107D9F710E0C2E6D0E004C02197D3
:10010000FE010E94FA0DC136D107C9F70E948A0A82
:100110000C94FC0F0C94000008950895CF92DF9288
:10012000EF92FF920F931F93CF93DF936C017A01AD
:100130008B01C0E0D0E0CE15DF0581F0D8016D91D4
:100140008D01D601ED91FC910190F081E02DC60169
:100150000995892B11F02196EECF7E01C701DF9121
:10016000CF911F910F91FF90EF90DF90CF90089566
:1001700085ED8093BC008091BC0084FDFCCF109283
:10018000470308954091D802262F30E0240F311DF7
:1001900021323105DCF4209147032430C9F4FC01FD
:1001A00080E090E0861758F43091D8022191DC016C
:1001B000A854BD4FA30FB11D2C930196F3CF80918E
:1001C000D802680F6093D80280E0089581E0089516
:1001D00082E008950895E0914B0380914A03E81767
:1001E00030F4F0E0E856FD4F808190E008958FEF05
:1001F0009FEF089590914B0380914A03981750F414
:10020000E92FF0E0E856FD4F208130E09F5F9093AA
:100210004B0302C02FEF3FEFC901089580914A03BD
:1002200090E020914B03821B91090895CF92DF92B9
:10023000EF92FF920F931F93CF93DF937C01CB013B
:100240008A0120911F03222389F0EB016B01C40E68
:10025000D51ECC15DD0569F06991D701ED91FC91B2
:100260000190F081E02DC7010995F3CF642F0E9422
:10027000C200C801DF91CF911F910F91FF90EF90C5
:10028000DF90CF900895CF93DF931F92CDB7DEB765
:10029000698320911F032223D1F02091480320324B
:1002A00040F021E030E0FC013383228380E090E0E5
:1002B00015C080914903E82FF0E0E05EFC4F998182
:1002C00090838F5F809349038093480305C061E06A
:1002D000CE0101960E94C20081E090E00F90DF9174
:1002E000CF910895CF93FC01C48121E020931F0397
:1002F000C093400310924903109248038385682BF2
:1003000089E593E00E94430190914803913208F0FF
:1003100045C0809147038111FCCF82E08093470361
:1003200081E0809346038FEF80931E0310921D039C
:1003300090931C03A0E2B3E0ECEFF2E080E09817AA
:1003400021F02D9121938F5FFACF1092FB028091C3
:10035000FB02CC0FC82BC093FB0280914503813078
:1003600061F4109245038091FB028093BB00809161
:10037000BC0083FDF8CF85EC01C085EE8093BC0006
:10038000809147038230E1F380911E038F3F31F06B
:1003900080911E03803211F080911E031092490358
:1003A0001092480310921F03CF9108950F931F934B
:1003B000CF938C01C62F0E9472016C2F6460C8011C
:1003C0000E9472016C2F6B7FC8010E94720183EC46
:1003D00090E00197F1F7CF911F910F910895089543
:1003E00080E090E00895862F642F0C949908862F62
:1003F000642F0C94C8080E94E70F0F931F93CF93AC
:10040000DF93EC0188819981009729F02A813B8153
:100410002617370788F48B016F5F7F4F0E94210FEB
:10042000009761F0998388831B830A832C813D8127
:10043000232B11F4FC01108281E001C080E0DF91E8
:10044000CF911F910F910895862F0C9470083FB79C
:10045000F8948091550390915603A0915703B09161
:10046000580326B5A89B05C02F3F19F00196A11D82
:10047000B11D3FBFBA2FA92F982F8827820F911D3A
:10048000A11DB11DBC01CD0142E0660F771F881F81
:10049000991F4A95D1F708952FB7F89460915103A9
:1004A0007091520380915303909154032FBF08958C
:1004B0001F920F920FB60F9211242F933F938F9399
:1004C0009F93AF93BF938091510390915203A0915A
:1004D0005303B09154033091500323E0230F2D3781
:1004E00020F40196A11DB11D05C026E8230F029638
:1004F000A11DB11D2093500380935103909352038B
:10050000A0935303B09354038091550390915603E5
:10051000A0915703B09158030196A11DB11D80937E
:10052000550390935603A0935703B0935803BF917C
:10053000AF919F918F913F912F910F900FBE0F9090
:100540001F901895EF92FF920F931F93CF93DF9315
:100550006115710511F480E01CC041155105C1F011
:100560007B01EC018C819D818A01080F191FB80164
:10057000CE010E94FD01882371F3288139818C818D
:100580009D81B701820F931F0E94F50F1D830C837D
:1005900081E0DF91CF911F910F91FF90EF9008952F
:1005A000CF93DF93EC0188819981009711F00E942D
:1005B000980E198218821D821C821B821A82DF917A
:1005C000CF910895EF92FF920F931F93CF93DF93F4
:1005D000EC017B018A01BA010E94FD01811104C076
:1005E000CE010E94D00207C01D830C83B701888111
:1005F00099810E94F50FCE01DF91CF911F910F914C
:10060000FF90EF900895CF93DF93EC01FB018617E5
:10061000970761F0608171816115710529F044814E
:1006200055810E94E20202C00E94D002CE01DF91F9
:10063000CF910895FC01808191810C94980EFC016A
:100640001182108213821282158214826115710543
:1006500051F0FB0101900020E9F73197AF01461BF3
:10066000570B0C94E20208958F929F92AF92BF9223
:10067000EF92FF920F931F93CF93DF93CDB7DEB727
:10068000A1970FB6F894DEBF0FBECDBF7C014A0123
:100690005B01FC0111821082138212821582148286
:1006A0002AE08E010F5F1F4FA801C501B4010E940F
:1006B000590DF80101900020E9F73197AF01401B77
:1006C000510BB801C7010E94E202FAE08F169104B3
:1006D000A104B104C8F468E571E0C8010E941F03D9
:1006E000F7014481558160817181C8010E94A20295
:1006F000811103C0C8010E94D002B801C7010E9445
:100700000303C8010E941A03C701A1960FB6F8940B
:10071000DEBF0FBECDBFDF91CF911F910F91FF9034
:10072000EF90BF90AF909F908F9008958F929F927F
:10073000AF92BF92CF92DF92EF92FF920F931F93EF
:10074000CF93DF9300D000D000D0CDB7DEB74B0100
:100750005C0169017A0160E080E00E94EC078AE5B3
:1007600091E00E94EA0760E08AE00E94EC07B50190
:10077000A401CE0101960E943403CE0101960E948D
:100780006708CE0101960E941A0361E080E00E9492
:10079000EC0782E691E00E94EA0761E08AE00E94AD
:1007A000EC07B701A601CE0101960E943403CE01E9
:1007B00001960E946708CE0101960E941A0362E02A
:1007C00080E00E94EC078CE691E00E94EA0762E07C
:1007D00087E00E94EC0700E011E0F8016081718180
:1007E000828193814AE00E94260862E08AE00E94AA
:1007F000EC0784E791E00E94EA0762E081E10E9451
:10080000EC07F80164817581868197814AE00E9436
:10081000260863E080E00E94EC078CE791E00E94EC
:10082000EA0763E089E00E94EC0785E891E00E9416
:10083000EA0726960FB6F894DEBF0FBECDBFDF9154
:10084000CF911F910F91FF90EF90DF90CF90BF90CD
:10085000AF909F908F9008950F931F93CF93DF9346
:100860008C01C62FD42F607F642B0E94D60180E1BB
:10087000C89FB00111246D2BC801DF91CF911F914A
:100880000F910C94D60141E00E942C0481E090E08D
:1008900008951F920F920FB60F9211242F933F933A
:1008A0004F935F936F937F938F939F93AF93BF9378
:1008B000EF93FF938091B900887F803609F49CC044
:1008C00068F5883209F45BC090F4803109F454C0B3
:1008D00038F4882309F4F6C0883009F44DC0F6C016
:1008E000883109F44CC0803209F45DC0EFC0803417
:1008F00009F468C048F4803309F455C0883309F01E
:10090000E5C080931E03D8C0803509F44FC08835F8
:1009100009F45DC0883409F0D9C0D6C0883909F41B
:10092000C7C0A8F4883709F467C038F4883609F4DA
:1009300063C0803709F460C0C9C0883809F4B8C002
:10094000803909F45FC0803809F0C0C05BC0803BCB
:1009500009F486C038F4803A09F466C0883A09F48C
:100960007FC0B4C0803C09F4A7C0883C09F4A4C08F
:10097000883B09F48AC0AAC08091FB0210C0909104
:100980001D0380911C03981770F5E0911D0381E011
:100990008E0F80931D03F0E0E450FD4F8081809323
:1009A000BB0085EC86C080931E038EC0E0911D03C2
:1009B00081E08E0F80931D038091BB00F0E0E45036
:1009C000FD4F808390911D0380911C036EC0E091C8
:1009D0001D0381E08E0F80931D038091BB00F0E02A
:1009E000E450FD4F80838091460381116DC081E00A
:1009F0008093450384EA61C083E0809347031092AB
:100A0000FA02CFCF8091FA02803208F051C0E09113
:100A1000FA0281E08E0F8093FA028091BB00F0E031
:100A2000E652FD4F8083BDCF85EC8093BC001092D1
:100A300047038091FA02803230F4E091FA02F0E04C
:100A4000E652FD4F10826091FA0270E0E09141039E
:100A5000F09142038AED92E009951092FA0236C0B5
:100A600084E0809347031092D9021092D802E0915B
:100A70004303F091440309958091D802811105C088
:100A800081E08093D8021092B802E091D90281E00F
:100A90008E0F8093D902F0E0E854FD4F808180935F
:100AA000BB009091D9028091D802981708F479CFB1
:100AB00085E88093BC000AC085EC8093BC0010924E
:100AC000470304C010921E030E94B800FF91EF91EB
:100AD000BF91AF919F918F917F916F915F914F9156
:100AE0003F912F910F900FBE0F901F901895CF93AD
:100AF000DF9300D000D000D0CDB7DEB70E941B0836
:100B000060E08AE00E94990860E080E00E94EC07C3
:100B100081E991E00E94EA0761E080E00E94EC0731
:100B20008BE991E00E94EA0762E080E00E94EC0716
:100B300087EA91E00E94EA0763E080E00E94EC0708
:100B400085EB91E00E94EA070E9404098823E1F204
:100B50008134C9F40E941B0860EC71E0CE0101965B
:100B60000E941F03CE0101960E94710C092E000CF9
:100B7000AA0BBB0B8093000190930101A09302018B
:100B8000B09303011AC0823409F50E941B0866EC79
:100B900071E0CE0101960E941F03CE0101960E94D2
:100BA000710C092E000CAA0BBB0B809304019093CF
:100BB0000501A0930601B0930701CE0101960E94A2
:100BC0001A0380E090E00E94490C9ECF843409F023
:100BD0009BCF0E941B080E944B0696CF0E940409DF
:100BE000882309F457C0833431F460E08AE00E941E
:100BF00099080E947705843431F460E08AE00E940D
:100C000099080C949C06813361F4809100019091C5
:100C10000101A0910201B09103010196A11DB11D36
:100C20000DC08733A1F48091000190910101A09142
:100C30000201B09103010197A109B109809300015C
:100C400090930101A0930201B093030108958333AF
:100C500061F48091040190910501A0910601B09189
:100C600007010196A11DB11D0DC0893399F4809132
:100C7000040190910501A0910601B091070101972F
:100C8000A109B1098093040190930501A093060185
:100C9000B093070108958090000190900101A09009
:100CA0000201B0900301C0900401D0900501E090D2
:100CB0000601F090070161E08AE00E949908A7010F
:100CC0009601C501B4010E949603CBE0D0E00E94DA
:100CD000EE0564E670E080E090E00E94500A219703
:100CE000B1F781E0881A9108A108B10821F7809036
:100CF000000190900101A0900201B090030160E01A
:100D00008AE00E949908A7019601C501B4010E94DA
:100D10009603CBE0D0E00E94EE0564E670E080E050
:100D200090E00E94500A2197B1F781E0C81AD108DB
:100D3000E108F10821F7B7CF0E941B0860E080E0CE
:100D40000E94EC078EEC91E00E94EA0761E080E0EF
:100D50000E94EC0784ED91E00E94EA0762E080E0E7
:100D60000E94EC078DED91E00E94EA070E940409C1
:100D7000882321F3813421F40E941B080E944B0632
:100D80008234E1F60E941B0800E010E060E080E0A1
:100D90000115110569F40E94EC0786EE91E00E94AE
:100DA000EA0761E080E00E94EC0782EF91E00FC06B
:100DB00001301105A9F40E94EC0786EE91E00E9433
:100DC000EA0761E080E00E94EC0780E292E00E9486
:100DD000EA0762E080E00E94EC0784E092E014C041
:100DE0000E94EC0786EE91E00E94EA0761E080E055
:100DF0000E94EC0782EF91E00E94EA0762E080E047
:100E00000E94EC0784E392E00E94EA0763E080E03E
:100E10000E94EC0785E192E00E94EA070E94040923
:100E2000C82F882309F4B2CF0E941B08C13439F4BB
:100E300061E08AE00E94990801E010E0A7CFC23487
:100E400039F460E08AE00E94990802E010E09ECF49
:100E5000C43409F09BCF60E08AE00E9499080E94A8
:100E60009C0696E0899FD0011124AF58BC4F909604
:100E70007C936E935F9791E091969C93919790915C
:100E8000DD03E091DE03F091DF03992339F0309721
:100E900051F0811108C080918D0304C0309719F082
:100EA0005C968C9109940895833081F028F4813008
:100EB00099F08230A1F008958730A9F08830B9F018
:100EC0008430D1F4809180008F7D03C080918000B8
:100ED0008F7780938000089584B58F7702C084B5A2
:100EE0008F7D84BD08958091B0008F7703C080917D
:100EF000B0008F7D8093B0000895009769F0FC01E9
:100F000001900020E9F73197AF01481B590BBC0154
:100F100085E693E00C948E0080E090E008950F93B6
:100F20001F93CF93DF93C82FD62F86E0C89FF00181
:100F30001124EF58FC4F11A2878D90A181309105AB
:100F4000D9F040F082309105A9F10397F1F560E006
:100F500070E034C06623C9F161E070E08C2F0E941C
:100F600031070E944C026093C9037093CA038093B7
:100F7000CB039093CC0329C00E944C020091C9037B
:100F80001091CA032091CB033091CC03AB01BC017B
:100F9000401B510B620B730B8091DB039091DC03C0
:100FA000A0E0B0E084179507A607B70718F462E041
:100FB00070E004C0D11109C063E070E08C2FDF91B4
:100FC000CF911F910F910C943107DF91CF911F9119
:100FD0000F9108950C947D07CF93DF93CDB7DEB7C3
:100FE00028970FB6F894DEBF0FBECDBF98E0E8E2B9
:100FF000F1E0DE01119601900D929A95E1F7909142
:101000006D03961710F46FEF690FFE013196E60F2E
:10101000F11DE60FF11D6081680F606840E085E614
:1010200093E028960FB6F894DEBF0FBECDBFDF91D8
:10103000CF910C942C0440E061E085E693E00E949F
:101040002C048BE39FE10197F1F708958F929F9213
:10105000AF92BF920F931F93CF93DF93CDB7DEB7BD
:10106000A1970FB6F894DEBF0FBECDBF19A24230D4
:1010700008F44AE08E010F5D1F4F842E912CA12CA5
:10108000B12CA50194010E94D80DE62FB901CA0127
:1010900001501109EA3014F4E05D01C0E95CD801A7
:1010A000EC93232B242B252B61F7C8010E947D078D
:1010B000A1960FB6F894DEBF0FBECDBFDF91CF91E2
:1010C0001F910F91BF90AF909F908F900895FC015A
:1010D000448155816081718185E693E00C948E0096
:1010E000CF93DF93282F30E0F901E255FF4F849131
:1010F000F901E656FF4FD491F901EA57FF4FC49129
:10110000CC2391F081110E945407EC2FF0E0EE0FF8
:10111000FF1FE458FF4FA591B491EC91ED2381E0BE
:1011200090E021F480E002C080E090E0DF91CF9178
:1011300008951F93CF93DF93282F30E0F901E255F4
:10114000FF4F8491F901E656FF4FD491F901EA5718
:10115000FF4FC491CC23C1F0162F81110E94540778
:10116000EC2FF0E0EE0FFF1FEE58FF4FA591B4916A
:101170009FB7F894111104C08C91D095D82302C068
:10118000EC91DE2BDC939FBFDF91CF911F910895EF
:10119000CF93DF9390E0FC01E656FF4F2491FC01D2
:1011A000EA57FF4F8491882361F190E0880F991FDF
:1011B000FC01E859FF4FC591D491FC01EE58FF4F57
:1011C000A591B491611109C09FB7F89488812095C9
:1011D00082238883EC912E230BC0623061F49FB789
:1011E000F8948881322F309583238883EC912E2BBD
:1011F0002C939FBF06C08FB7F894E8812E2B2883CD
:101200008FBFDF91CF9108956F927F928F929F92BF
:10121000AF92BF92CF92DF92EF92FF920F931F9304
:10122000CF93DF9381E08093DD030E944C02009115
:10123000CD031091CE032091CF033091D003AB01A9
:10124000BC01401B510B620B730B8091D903909131
:10125000DA03A0E0B0E084179507A607B70708F007
:10126000E6C0C0E08091D703C81730F0712C812C04
:10127000912C5401839440C0E091D303F091D403A6
:10128000EC0FF11D62E080810E94C808CF5FEACFB9
:10129000C62DD0E0E091D303F091D403EC0FFD1FF5
:1012A00080810E9470082496CC0FDD1FCF58DC4F40
:1012B000892B09F04BC0888199818C299D299983BC
:1012C000888363948091D703681610F3E091D50367
:1012D000F091D603E00FF11F61E080810E94990830
:1012E0008091D5039091D603FC01E00FF11F60E0DF
:1012F00080810E94C80873948091D803781658F5AD
:10130000072D10E0E091D503F091D603E00FF11F17
:1013100061E080810E94C808E091D503F091D60376
:10132000E00FF11F60E080810E949908D501C4019F
:10133000072C04C0880F991FAA1FBB1F0A94D2F75D
:101340006C017C01E094F094612CBCCF8881998180
:101350008E219F21B4CF21E7E22E23E0F22EF70168
:101360008FEF9FEF278D30A1232B21F4148E968FC2
:10137000858F11A2369623E0ED3AF20799F7C0E087
:1013800096E0D92E8091D703C81758F5D0E00C2FDE
:1013900010E0000F111F07581C4F2091D803D217DF
:1013A000F0F4F801408151810D2E02C05695479509
:1013B0000A94E2F7642F6170C29F900111242D0FEF
:1013C000311DE1E7F3E080E0A58DB68D2A173B07DC
:1013D00009F44DC08F5F36968A30B1F72CC0CF5FCD
:1013E000D1CFC0E0F70181A18111C1E0F6E0EF0E9D
:1013F000F11C2DEAE21623E0F206A1F70E944C024E
:101400006093CD037093CE038093CF039093D0036A
:10141000CC2369F080919203882349F08091900356
:1014200090919103019719F480918D032AC0109235
:10143000DD0380E026C040FF1CC0E1E7F3E080E070
:1014400090E0448D411117C0E091D103F091D20397
:10145000E20FF31F4081D89EF001D99EF00D1124B8
:10146000EF58FC4F448F368F258F10A2178E0E94A5
:101470008F07DF5F92CF019636968A30910509F784
:10148000F8CFDF91CF911F910F91FF90EF90DF90F8
:10149000CF90BF90AF909F908F907F906F90089566
:1014A0008F929F92AF92BF92CF92DF92EF92FF9274
:1014B0006B017C010E9427024B015C01C114D10425
:1014C000E104F104F1F00E942702DC01CB0188194C
:1014D0009909AA09BB09883E9340A105B10570F39B
:1014E00021E0C21AD108E108F10888EE880E83E0F5
:1014F000981EA11CB11CC114D104E104F10419F718
:10150000DDCFFF90EF90DF90CF90BF90AF909F9096
:101510008F900895789484B5826084BD84B581608D
:1015200084BD85B5826085BD85B5816085BD8091AE
:101530006E00816080936E00109281008091810026
:10154000826080938100809181008160809381001E
:10155000809180008160809380008091B1008460E0
:101560008093B1008091B00081608093B000809141
:101570007A00846080937A0080917A008260809300
:101580007A0080917A00816080937A0080917A005D
:10159000806880937A001092C10061E08AE00E9426
:1015A000C80860E08AE00E9499080E944C0260939B
:1015B0004C0370934D0380934E0390934F0310920E
:1015C0004B0310924A031092490310924803109261
:1015D000470381E0809346031092450361E082E176
:1015E0000E94990861E083E10E9499088091B90006
:1015F0008E7F8093B9008091B9008D7F8093B90070
:1016000088E48093B80085E48093BC008CE890E087
:1016100090934403809343038DE890E090934203BA
:101620008093410310926A0380916F03823018F017
:1016300098E090936A0380936D0362E370E080E02A
:1016400090E00E94500A6091700385E693E00E944A
:10165000720168EE73E080E090E00E94500A60E35F
:1016600085E693E00E94D601CBE4D6E4CE01019753
:10167000F1F760E385E693E00E94D6012197F1F748
:1016800060E385E693E00E94D60183E592E001974E
:10169000F1F760E285E693E00E94D60160916A036B
:1016A000606240E085E693E00E942C0484E0809331
:1016B0006B0340E06CE085E693E00E942C040E94FE
:1016C0001B0882E080936C0340E066E085E693E0CF
:1016D0000E942C0440E062E085E693E00E942C0426
:1016E0008BE39FE10197F1F788E08093700360E05E
:1016F00085E693E00E94720160916C036E7F6093B7
:101700006C03646040E085E693E00E942C048091C5
:10171000080190910901892B71F460E080E00E943A
:10172000EC0788E492E00E94EA0768EE73E080E04C
:1017300090E00E94500A8091080190910901019661
:1017400090930901809308010E944C0200914C0380
:1017500010914D0320914E0330914F03DC01CB01DA
:10176000801B910BA20BB30B89389341A105B105E6
:10177000C8F460E080E00E94EC078BE592E00E94F4
:10178000EA0761E080E00E94EC0781E692E00E94B7
:10179000EA0762E080E00E94EC078CE692E00E949B
:1017A000EA07D2CF0E949C0610925C0310925B0362
:1017B00088EE93E0A0E0B0E080935D0390935E0339
:1017C000A0935F03B093600384E391E090935A0386
:1017D000809359031092730310927703109276034B
:1017E0001092780382E591E09093720380937103E5
:1017F000E1E7F3E0148E10A2178E11A2369683E073
:10180000ED3AF807B9F78EE091E09093D403809316
:10181000D3038AE091E09093D6038093D50384E0CC
:101820008093D7038093D80322E131E03093D20331
:101830002093D1032AE030E03093DA032093D903D8
:1018400024EF31E03093DC032093DB031092DF03BD
:101850001092DE031092CD031092CE031092CF03AC
:101860001092D0031092DD03109268031092670368
:1018700026E431E0309366032093650397E290936A
:10188000690394E190936E0380936F031092700349
:101890000895CF92DF92FF920F931F93CF93DF9320
:1018A000EC0100E011E06C018AE0C80ED11CF801E7
:1018B000F1908F01CE010E948B0DF81621F06F2D53
:1018C000CE010E94930D2196CC15DD0581F780E0B5
:1018D00091E0DF91CF911F910F91FF90DF90CF901A
:1018E0000895CF92DF92EF92FF921F93CF93DF93F1
:1018F000CDB7DEB72E970FB6F894DEBF0FBECDBFC3
:101900007C0165E772E0CE0101960E941F03F7019A
:101910004481558160817181CE0101960E94A202AD
:10192000811104C0CE0101960E94D00249E050E02E
:101930006BE772E0CE0101960E94A202882309F4AF
:101940005EC018861F821A8619861C861B86BE01F9
:101950006F5F7F4FCE0107960E940303CE01019671
:101960000E941A036BE771E0CE0101960E941F03EB
:1019700060E080E00E94EC07CE0107960E946708B5
:1019800061E080E00E94EC07CE0101960E946708AA
:1019900062E080E00E94EC0785E892E00E94EA079E
:1019A0000E940409182F882319F3843411F40E942B
:1019B00077058A3249F440E050E06BE771E0CE01F0
:1019C00001960E94E2020FC0833269F489819A81F4
:1019D000009729F00E941D0D6B017C0115C0C12CE0
:1019E000D12C760111C01D871E8641E050E0BE015A
:1019F000635F7F4FCE0101960E94A202B9CFCE0154
:101A000001960E94D0029DCF0E941B08CE01019634
:101A10000E941A03CE0107960E941A03C6012E9651
:101A20000FB6F894DEBF0FBECDBFDF91CF911F91EF
:101A3000FF90EF90DF90CF9008951F93FC019927BE
:101A40008827BC01E89411911032E9F3193010F0A5
:101A50001E30C8F31B3251F01D3249F4689406C0A1
:101A60000E94440D610F711D811D911D1191105334
:101A70001A30B0F33EF490958095709561957F4F44
:101A80008F4F9F4F1F910895592F482F372F262F83
:101A9000660F771F881F991F660F771F881F991F72
:101AA000620F731F841F951F660F771F881F991F72
:101AB0000895BB27FA01A62F6217710581059105CC
:101AC000330B30FB66F0AA27660F771F881F991F1C
:101AD000AA1FA21710F0A21B63953850A9F7A05DAA
:101AE000AA3308F0A95DA19336F7B111B193108222
:101AF000CA010C947B0DDC01FC01672F71917723E7
:101B0000E1F7329704C07C916D9370836291AE17B8
:101B1000BF07C8F30895F999FECF92BD81BDF89A29
:101B2000992780B50895262FF999FECF1FBA92BD47
:101B300081BD20BD0FB6F894FA9AF99A0FBE0196AE
:101B400008952F923F924F925F926F927F928F9261
:101B50009F92AF92BF92CF92DF92EF92FF920F933C
:101B60001F93CF93DF93CDB7DEB7CA1BDB0B0FB646
:101B7000F894DEBF0FBECDBF09942A883988488803
:101B80005F846E847D848C849B84AA84B984C88499
:101B9000DF80EE80FD800C811B81AA81B981CE0F90
:101BA000D11D0FB6F894DEBF0FBECDBFED01089575
:101BB000A1E21A2EAA1BBB1BFD010DC0AA1FBB1F51
:101BC000EE1FFF1FA217B307E407F50720F0A21BC3
:101BD000B30BE40BF50B661F771F881F991F1A9430
:101BE00069F760957095809590959B01AC01BD015A
:101BF000CF010895EE0FFF1F0590F491E02D099499
:101C00000F931F93CF93DF938230910510F482E0FE
:101C100090E0E091E203F091E30320E030E0A0E007
:101C2000B0E0309719F1408151810281138148174A
:101C30005907C8F08417950769F4109731F0129688
:101C40000C93129713961C9327C00093E2031093F2
:101C5000E30322C02115310519F04217530718F488
:101C60009A01BD01EF01DF01F801DBCF211531053C
:101C7000F9F0281B390B2430310580F48A819B81CF
:101C80006115710521F0FB019383828304C0909359
:101C9000E3038093E203FE01329644C0FE01E20FAB
:101CA000F31F8193919322503109398328833AC0DD
:101CB0002091E0033091E103232B41F42091240192
:101CC000309125013093E1032093E003209122011C
:101CD000309123012115310541F42DB73EB74091D4
:101CE000260150912701241B350BE091E003F09170
:101CF000E103E217F307A0F42E1B3F0B2817390767
:101D000078F0AC014E5F5F4F2417350748F04E0F57
:101D10005F1F5093E1034093E0038193919302C0CE
:101D2000E0E0F0E0CF01DF91CF911F910F91089596
:101D3000CF93DF93009709F481C0FC01329713829F
:101D40001282A091E203B091E303109781F4208105
:101D50003181820F931F2091E0033091E103281716
:101D6000390751F5F093E103E093E00367C0ED011B
:101D700020E030E0CE17DF0740F44A815B819E010E
:101D800041155105F1F0EA01F5CFD383C2834081BB
:101D90005181840F951FC817D90759F488819981FB
:101DA000840F951F0296918380838A819B81938300
:101DB00082832115310529F4F093E303E093E203D4
:101DC0003DC0E901FB83EA8349915991C40FD51FB6
:101DD000EC17FD0761F480819181840F951F0296B5
:101DE000E90199838883828193819B838A83E0E0E0
:101DF000F0E012968D919C911397009719F0FD01D8
:101E0000DC01F7CF8D919C9111979D012E5F3F4F83
:101E1000820F931F2091E0033091E10328173907C7
:101E200069F4309729F41092E3031092E20302C0A0
:101E300013821282B093E103A093E003DF91CF916C
:101E40000895A0E0B0E0E7E2FFE00C94A50DEC01FE
:101E5000009721F4CB010E94000EB4C0FC01E60FF4
:101E6000F71F9C0122503109E217F30708F4A8C0BC
:101E7000D9010D911C91119706171707B0F0053085
:101E8000110508F49BC0C80104978617970708F44A
:101E900095C002501109061B170B019311936D9306
:101EA0007C93CF010E94980E89C05B01A01AB10AF1
:101EB0004C01800E911EA091E203B091E303612CCE
:101EC000712CE12CF12C109709F446C08D919C9156
:101ED0001197A815B905B1F56C0142E0C40ED11CEB
:101EE000CA14DB0478F14C018A189B08640142E0B3
:101EF000C40ED11C1296BC9012971396AC91B5E00B
:101F0000CB16D10440F0B282A38391828082D901A2
:101F10006D937C9309C00E5F1F4F800F911FF901D5
:101F200091838083EB2DFA2FE114F10431F0D70176
:101F30001396FC93EE93129741C0F093E303E09362
:101F4000E2033CC06816790608F43C017D01129654
:101F50000D90BC91A02DB7CF8091E0039091E1034B
:101F600088169906E1F466167706C8F48091220176
:101F700090912301009741F48DB79EB740912601BF
:101F800050912701841B950BE817F907C8F4F093CB
:101F9000E103E093E003F901718360830FC0CB019B
:101FA0000E94000E7C01009759F0A801BE010E941A
:101FB000EC0FCE010E94980EC70104C0CE0102C0F2
:101FC00080E090E0CDB7DEB7EEE00C94C10D81E08B
:101FD00090E0F8940C94FC0FFB01DC0102C001902E
:101FE0000D9241505040D8F70895FB01DC0101905B
:0C1FF0000D920020E1F70895F894FFCF57
:101FFC000A0000005A00000000000607080902034E
:10200C0004053132334134353642373839432A30BE
:10201C0023440000E403800000004000140054003E
:10202C000000000043011601F001EA000E01FA0065
:10203C00EB000000000043048E00F001EF010000F3
:10204C000000F701F301240230005A617379703AF1
:10205C00200050727A657277613A2000437A61737E
:10206C005A3A2000437A6173503A200028442920C0
:10207C004D454E5500284329204E61737461777984
:10208C00004E6173746177793A2000284129202D24
:10209C0020507261636100284229202D2050727AF1
:1020AC006572776100284429202D204175746F00DA
:1020BC0070726163790070727A65727779004D6520
:1020CC006E753A004175746F202841290052656B7A
:1020DC0061202842290054727962207265637A6EFD
:1020EC007900284129202D205A415359502053540E
:1020FC0041525400284229202D205A415359502036
:10210C0053544F5000284429202D204D454E550046
:10211C00284129202D205A415359502053544152C3
:10212C0054202A00284229202D205A41535950204E
:10213C0053544F5020202A005069657277737A658A
:10214C0020776C61637A656E696500576974616D9F
:10215C0000537A61636F776E65676F00546F7069B7
:10216C0061727A6100437A617320003A20312D3913
:10217C0039393973002A20736B6173756A2C2023EB
:08218C0020656E74657200000D
:00000001FF
